S00C0000554152542E73726563DC
S113000003C1000020C100001EC100001CC100008B
S11300101AC1000018C1000016C1000014C100007C
S113002012C1000010C100000EC100000CC100008C
S11300300AC1000008C1000006C1000004C100009C
S113004002C1000000C10000FEC00000FCC00000AE
S1130050FAC00000F8C00000F6C00000F4C00000C0
S1130060F2C00000F0C00000EEC00000ECC00000D0
S1130070EAC00000E8C00000E6C00000E4C00000E0
S1130080E2C00000E0C00000DEC00000DCC00000F0
S1130090DAC00000D8C00000D6C00000D4C0000000
S11300A0D2C00000D0C00000CEC00000CCC0000010
S11300B0CAC00000C8C00000C6C00000C4C0000020
S11300C0C2C00000C0C00000BEC00000BCC0000030
S11300D0BAC00000B8C00000B6C00000B4C0000040
S11300E0B2C00000B0C00000AEC00000ACC0000050
S11300F0AAC00000A8C00000A6C00000A4C0000060
S1130100A2C00000A0C000009EC000009CC000006F
S11301109AC0000098C0000096C0000094C000007F
S113012092C0000090C000008EC000008CC000008F
S11301308AC0000088C0000086C0000084C000009F
S113014082C0000080C000007EC000007CC00000AF
S11301507AC0000078C0000076C0000074C00000BF
S113016072C0000070C000006EC000006CC00000CF
S11301706AC0000068C0000066C0000064C00000DF
S113018062C0000060C000005EC000005CC00000EF
S11301905AC0000058C0000056C0000054C00000FF
S11301A052C0000050C000004EC000004CC000000F
S11301B04AC0000048C0000046C0000044C000001F
S11301C042C0000040C000003EC000003CC000002F
S11301D03AC0000038C0000036C0000034C000003F
S11301E032C0000030C000002EC000002CC000004F
S11301F02AC0000028C0000026C000006364696EA5
S11302006F70737578585B0011241FBECFEFCDBF9C
S1130210DFE5DEBF00E00CBF10E2A0E0B0E2EEE3F9
S1130220F2E100E00BBF02C007900D92A031B107CC
S1130230D9F720E2A0E1B0E201C01D92A032B207DA
S1130240E1F77BD2FAC7DCCECF93DF931F92CDB711
S1130250DEB78091142090911520E0911020F09148
S11302601120BE016F5F7F4F19958981082E000C04
S1130270990B0F90DF91CF910895FC01918195FF27
S1130280FDCF608380E090E00895FC019181992383
S1130290ECF7808108954F925F926F927F928F92D4
S11302A09F92AF92BF92EF92FF920F931F93CF93BF
S11302B07C014A015B0128013901FC01848182FF30
S11302C016C0D901C801689412F8B695A7959795F8
S11302D087951694D1F7B901A801032E36E17695D6
S11302E06795579547953A95D1F7302D15C0D901A3
S11302F0C801689413F8B695A795979587951694B1
S1130300D1F7B901A801032E37E176956795579582
S113031047953A95D1F7302D88159905AA05BB055F
S113032008F4A2C084169506A606B70608F49EC073
S1130330F701848182FD04C0880C991CAA1CBB1C93
S1130340C301B201A501940146D22F3F31054105F5
S1130350510508F48DC08FEF90E0A0E0B0E0C9EF44
S113036005C0281739074A075B0758F0880F991FFB
S1130370AA1FBB1FCD3F0CF48160CF5FC73089F744
S11303804DC0CC230CF04AC0D501C401880F991F7D
S1130390AA1FBB1F880F991FAA1FBB1F880F991F75
S11303A0AA1FBB1F481A590A6A0A7B0ACE3FECF4FB
S11303B08DEF9FEF8C1B9109C7FD939504C0440CEE
S11303C0551C661C771C8A95D2F7D501C401B695D5
S11303D0A79597958795BC01CD01640D751D861D64
S11303E0971DA5019401F7D135C083E08C0FA501B9
S11303F0940104C0220F331F441F551F8A95D2F75E
S1130400DA01C901B695A79597958795BC01CD01E9
S1130410640D751D861D971DDED11CC083E08C0FF5
S1130420A501940104C0220F331F441F551F8A9550
S1130430D2F7DA01C901B695A79597958795BC01BE
S1130440CD01640D751D861D971DC5D1215031093F
S113045041095109832F8F70C295C07FC82BF701C2
S1130460C783268381E018C080E016C080E014C0F2
S1130470D501C401880F991FAA1FBB1F880F991F9C
S1130480AA1FBB1F880F991FAA1FBB1F481A590A0E
S11304906A0A7B0AC9EF8CCFCF911F910F91FF900D
S11304A0EF90BF90AF909F908F907F906F905F90F0
S11304B04F9008950F931F93CF93DF93EC018B011B
S11304C0009709F4E6C0803C910521F460E180E0E6
S11304D014D1DFC0C03881E0D80721F462E080E0A5
S11304E00CD1D7C0C115E1E0DE0721F461E080E062
S11304F004D1CFC0C038F3E0DF0721F461E081E02C
S1130500FCD0C7C0C03983E0D80721F461E082E0A1
S1130510F4D0BFC0C115E2E0DE0721F462E081E05F
S1130520ECD0B7C0C034F2E0DF0721F462E082E02F
S1130530E4D0AFC0C03283E0D80721F464E082E0A5
S1130540DCD0A7C0C115E8E0DE0721F461E083E058
S1130550D4D09FC0C115F9E0DF0721F461E084E045
S1130560CCD097C0C1158AE0D80721F461E085E0BA
S1130570C4D08FC0C115EBE0DE0721F461E086E052
S1130580BCD087C0C034F8E0DF0721F462E083E028
S1130590B4D07FC0C03489E0D80721F462E084E09D
S11305A0ACD077C0C034EAE0DE0721F462E085E035
S11305B0A4D06FC0C039F8E0DF0721F464E083E021
S11305C09CD067C0C03989E0D80721F464E084E096
S11305D094D05FC0C039EAE0DE0721F464E085E02E
S11305E08CD057C0C039FBE0DF0721F464E086E01B
S11305F084D04FC0C03C88E0D80721F468E083E091
S11306007CD047C0C03CE9E0DE0721F468E084E028
S113061074D03FC0C03AF8E0DF0721F460E183E022
S11306206CD037C0C03A89E0D80721F460E184E097
S113063064D02FC0C03AEAE0DE0721F460E185E02F
S11306405CD027C0C03AFBE0DF0721F460E186E01C
S113065054D01FC0C03B88E0D80721F460E283E097
S11306604CD017C0C03BE9E0DE0721F460E284E02F
S113067044D00FC0C038F4E0DF0721F460E483E025
S11306803CD007C0C03A84E0D80719F460E485E0A0
S113069034D08D818F738D83F80195818481892B6A
S11306A09681911198E0892B8D83F80140815181C5
S11306B06281738100E814E82EE130E0CE01EBDDC5
S11306C09C8198609C839C8190619C83DF91CF91F5
S11306D01F910F910895682F8091142090911520F7
S11306E0E0911220F0911320199599231CF081E0D8
S11306F090E008958FEF9FEF0895CF93DF931F92BB
S1130700CDB7DEB79FB79983F8949981E82FF0E0CD
S1130710E059FF4F60958081682360839FBF0F90ED
S1130720DF91CF910895CF93DF93EB01AEDD888302
S1130730DF91CF910895A1CD0895CF93DF93CDB7E5
S1130740DEB72797CDBFDEBF80EA9AE080931420FE
S1130750909315208BE993E08093122090931320BB
S113076083E993E08093102090931120E6E0F0E277
S113077084818D8385818E8386818F83808191811D
S1130780A281B38189839A83AB83BC8360E185E0D2
S1130790B4DFBE016F5F7F4F80EA9AE08BDE64E2D4
S11307A071E08BE693E039D088E080938106CE0136
S11307B001967C010DE010E2FF92EF921F930F93DC
S11307C07BD08981082E000C990B71D00F900F906B
S11307D00F900F90F1CFA1E21A2EAA1BBB1BFD01B3
S11307E00DC0AA1FBB1FEE1FFF1FA217B307E4070C
S11307F0F50720F0A21BB30BE40BF50B661F771F64
S1130800881F991F1A9469F7609570958095909543
S11308109B01AC01BD01CF0108950F931F93CF93AA
S1130820DF93009731F46115710519F480E090E0CD
S113083039C08B01EC016EE070E081E090E012D3EE
S1130840FC01892B99F380E883830115110571F06C
S11308500287138781E88383809116209091172063
S1130860892B21F4E0931620F09317202097C9F0E8
S1130870C087D1878381826083838091182090917F
S11308801920892B71F4E0931820F093192080919A
S11308901A2090911B20892B21F4E0931A20F093C5
S11308A01B20CF01DF91CF911F910F91089560918B
S11308B018207091192069C4CF93DF93CDB7DEB7A8
S11308C0AE014A5F5F4FFA0161917191AF0180916E
S11308D0162090911720AFD1DF91CF91089520FD7C
S11308E009C0FC0123FD05C022FF02C0738362839B
S11308F051834083089544FD17C046FD17C0AB01E2
S1130900BC01DA01FB01AA0FBB1FEE1FFF1F1094ED
S1130910D1F74A0F5B1F6E1F7F1FCB01BA01660F11
S1130920771F881F991F09C033E001C034E0660FA8
S1130930771F881F991F3150D1F7620F711D811DD8
S1130940911D08950F931F93CF93DF938C01C801DA
S1130950DED3EC0197FD06C0C0D3892BC1F7B801E3
S1130960CE014FD4CE01DF91CF911F910F91089505
S11309708F929F92AF92BF92EF92FF920F931F9329
S1130980CF93DF938C01D62F7A01B22EC0D39C0172
S113099033272B32310531F02D32310559F48B2DAB
S11309A08068B82ED15011F480E061C0C801AFD383
S11309B097FDFACFCB2DCD7F2B2D2073F9F4803307
S11309C0E9F4AA24AA94AD0E09F43EC0C8019FD349
S11309D097FD3AC09C012F7D33272835310541F41A
S11309E0C264D25089F1C80192D397FF07C02CC0CA
S11309F0B6FE02C0C26001C0C261DA2D812C912C06
S1130A00540120ED280F283078F0C4FF03C0B8014A
S1130A10F8D317C02A3040F0C6FFF9CF2F7D3FEE40
S1130A20320F3630A0F727504C2FC501B40163DFD5
S1130A304B015C01C260D15051F0C80168D397FFEB
S1130A40E0CFC1FD04C0B0CF812C912C5401C7FF6D
S1130A5008C0B094A09490948094811C911CA11C13
S1130A60B11C2C2FB501A401C70139DF81E0DF914E
S1130A70CF911F910F91FF90EF90BF90AF909F90F7
S1130A808F9008955F926F927F928F929F92AF9210
S1130A90BF92CF92DF92EF92FF920F931F93CF9367
S1130AA0DF93CDB7DEB7A097CDBFDEBF5C01962E36
S1130AB07A01F9018E010F5F1F4F680180E2D801AE
S1130AC01D928A95E9F7D50113968C9080E090E009
S1130AD0612C712C30E061E070E083FC259183FE91
S1130AE021918F01522E211103C080E090E090C02B
S1130AF02E3511F4009751F1432F50E04817590750
S1130B003CF42D3559F12D3219F4772009F103C045
S1130B10772009F468C0452D469546954695D6013B
S1130B20A40FB11D452D47708B0102C0000F111F8A
S1130B304A95E2F7A8015C91452B4C93651459F052
S1130B40561410F45394E7CF5A94E5CF31E004C01F
S1130B507724739401C0712C0196BFCF772019F0CC
S1130B608E8180628E83311103C08824839417C0E0
S1130B70F6019E012F5D3F4F8081809581932E1752
S1130B803F07D1F7F2CFE114F10429F0D7018C9398
S1130B90F70131967F019A94812C9920E9F0C501DF
S1130BA0B6D297FD17C0FC01FF2723E0F595E79522
S1130BB02A95E1F7EC0DFD1D208130E0AC01477072
S1130BC0552702C0359527954A95E2F720FDDBCFDE
S1130BD0B50117D3811089CFE114F10411F0D701C5
S1130BE01C92C80115C0422F469546954695D601DC
S1130BF0A40FB11D422F47708B0102C0000F111FBB
S1130C004A95E2F7A8015C91452B4C93622EA4CF40
S1130C10A096CDBFDEBFDF91CF911F910F91FF90C2
S1130C20EF90DF90CF90BF90AF909F908F907F9088
S1130C306F905F9008955F926F927F928F929F92D0
S1130C40AF92BF92CF92DF92EF92FF920F931F93D6
S1130C50CF93DF936C01EB015A01FC0116821782DA
S1130C60512CF601E380FE01E3FC8591E3FE8191C2
S1130C70182FEF01882309F4E0C090E02ED2892BCD
S1130C8019F0C6015FDEEDCF153241F4FE01E3FC3D
S1130C901591E3FE1191EF01153271F4C60137D2BB
S1130CA097FDC9C0412F50E09C0133272417350715
S1130CB0C1F2B601A6D2C1C01A3239F4E3FC1591CF
S1130CC0E3FE1191EF0101E001C000E0F12C20ED01
S1130CD0210F2A3078F402606F2D70E080E090E0FC
S1130CE040E209DEF62EFE01E3FC1591E3FE1191CC
S1130CF0EF01EDCF01FF03C0F11003C09EC0FF243C
S1130D00FA94183619F01C3651F010C0FE01E3FCB9
S1130D101591E3FE1191EF01183641F40860046067
S1130D20FE01E3FC1591E3FE1191EF01112309F497
S1130D3084C0612F70E08CEF91E0D7D1892B09F446
S1130D407CC000FD07C0F50180809180C50102963A
S1130D505C0102C0812C912C1E3649F4F6014681B7
S1130D60578160E070E0202FC401B9DD7ACF1336DB
S1130D70A1F401FD02C0FF24F394C601C8D197FD7C
S1130D805AC08114910429F0F4018083C4010196AE
S1130D904C01FA94F110F1CF4AC01B3551F49E0175
S1130DA0A4016F2DC6016EDEEC01892B09F03FC052
S1130DB039C0C601C7DD97FD3EC01F3649F128F48E
S1130DC0143621F1193639F125C0133771F015376E
S1130DD0E9F020C08114910429F0F4016082C40177
S1130DE001964C01FA94FF2059F0C60190D13C01C0
S1130DF097FD06C072D1892B69F3B601C30101D2F4
S1130E0081149104A1F0F401108211C0006203C0A6
S1130E10006101C00064202FA4016F2DC601A8DD6C
S1130E20811105C0F6018381807329F406C000FD99
S1130E3018CF539416CF552019F0852D90E002C099
S1130E408FEF9FEFDF91CF911F910F91FF90EF9064
S1130E50DF90CF90BF90AF909F908F907F906F90D6
S1130E605F9008950F931F93CF93DF93869F800124
S1130E70879F100D969F100D1124C8010DD0EC0111
S1130E80009721F0A80160E070E03AD1CE01DF9133
S1130E90CF911F910F9108950F931F93CF93DF93D9
S1130EA08230910510F482E090E0E0911E20F091F0
S1130EB01F2020E030E0A0E0B0E0309719F140813D
S1130EC051810281138148175907C8F08417950787
S1130ED069F4109731F012960C93129713961C93A1
S1130EE027C000931E2010931F2022C02115310516
S1130EF019F04217530718F49A01BD01EF01DF01FD
S1130F00F801DBCF21153105F9F0281B390B24300A
S1130F10310580F48A819B816115710521F0FB0103
S1130F208283938304C080931E2090931F20FE012C
S1130F30329644C0FE01E20FF31F81939193225035
S1130F403109288339833AC020911C2030911D2017
S1130F50232B41F4209102203091032020931C2064
S1130F6030931D202091002030910120211531055E
S1130F7041F42DB73EB74091042050910520241B25
S1130F80350BE0911C20F0911D20E217F307A0F42B
S1130F902E1B3F0B2817390778F0AC014E5F5F4FCB
S1130FA02417350748F04E0F5F1F40931C205093C1
S1130FB01D208193919302C0E0E0F0E0CF01DF9126
S1130FC0CF911F910F910895CF93DF93009709F468
S1130FD081C0FC01329712821382A0911E20B0912D
S1130FE01F20109781F420813181820F931F20915B
S1130FF01C2030911D202817390751F5E0931C203F
S1131000F0931D2067C0ED0120E030E0CE17DF072C
S113101040F44A815B819E0141155105F1F0EA01DA
S1131020F5CFC283D38340815181840F951FC817A4
S1131030D90759F488819981840F951F029680837A
S113104091838A819B81828393832115310529F4BD
S1131050E0931E20F0931F203DC0E901EA83FB8347
S113106049915991C40FD51FEC17FD0761F4808194
S11310709181840F951F0296E90188839983828167
S113108093818A839B83E0E0F0E012968D919C919A
S11310901397009719F0FD01DC01F7CF8D919C9116
S11310A011979D012E5F3F4F820F931F20911C20AB
S11310B030911D202817390769F4309729F41092CC
S11310C01E2010921F2002C012821382A0931C20A3
S11310D0B0931D20DF91CF9108959111ABC0803260
S11310E019F089508550D0F70895FC010590061633
S11310F021F00020D9F7C00108953197CF01089558
S1131100DC0101C06D9341505040E0F70895CF9346
S1131110DF93EC012B8120FF33C026FF0AC02F7B15
S11311202B838E819F8101968E839F838A8190E099
S113113029C022FF0FC0E881F9818081082E000CAC
S1131140990B009719F420622B831AC03196E88317
S1131150F9830EC0EA85FB85199597FF09C02B8199
S1131160019611F080E201C080E1822B8B8308C0DC
S11311702E813F812F5F3F4F2E833F83992702C0EB
S11311808FEF9FEFDF91CF9108950F931F93CF932C
S1131190DF93FB01238121FD03C08FEF9FEF2CC060
S11311A022FF16C046815781248135814217530797
S11311B044F4A081B1819D012F5F3F4F208331838F
S11311C08C93268137812F5F3F4F2683378314C04A
S11311D08B01EC01FB010084F185E02D1995892B2D
S11311E0E1F6D80116968D919C9117970196169663
S11311F08D939C931797CE01DF91CF911F910F91FF
S11312000895FB01238120FF12C026FD10C08F3FEB
S11312103FEF930761F082832F7D2064238326812F
S113122037812150310926833783992708958FEF19
S11112309FEF0895992788270895F894FFCF1B
S113123E000020202000802500000300002563000C
S9030000FC
