S00C0000554152542E73726563DC
S113000003C1000021C100001FC100001DC1000088
S11300101BC1000019C1000017C1000015C1000078
S113002013C1000011C100000FC100000DC1000088
S11300300BC1000009C1000007C1000005C1000098
S113004003C1000001C10000FFC00000FDC00000AA
S1130050FBC00000F9C00000F7C00000F5C00000BC
S1130060F3C00000F1C00000EFC00000EDC00000CC
S1130070EBC00000E9C00000E7C00000E5C00000DC
S1130080E3C00000E1C00000DFC00000DDC00000EC
S1130090DBC00000D9C00000D7C00000D5C00000FC
S11300A0D3C00000D1C00000CFC00000CDC000000C
S11300B0CBC00000C9C00000C7C00000C5C000001C
S11300C0C3C00000C1C00000BFC00000BDC000002C
S11300D0BBC00000B9C00000B7C00000B5C000003C
S11300E0B3C00000B1C00000AFC00000ADC000004C
S11300F0ABC00000A9C00000A7C00000A5C000005C
S1130100A3C00000A1C000009FC000009DC000006B
S11301109BC0000099C0000097C0000095C000007B
S113012093C0000091C000008FC000008DC000008B
S11301308BC0000089C0000087C0000085C000009B
S113014083C0000081C000007FC000007DC00000AB
S11301507BC0000079C0000077C0000075C00000BB
S113016073C0000071C000006FC000006DC00000CB
S11301706BC0000069C0000067C0000065C00000DB
S113018063C0000061C000005FC000005DC00000EB
S11301905BC0000059C0000057C0000055C00000FB
S11301A053C0000051C000004FC000004DC000000B
S11301B04BC0000049C0000047C0000045C000001B
S11301C043C0000041C000003FC000003DC000002B
S11301D03BC0000039C0000037C0000035C000003B
S11301E033C0000031C000002FC000002DC000004B
S11301F02BC0000029C0000027C000006364696EA2
S11302006F70737578585B0011241FBECFEFCDBF9C
S1130210DFE5DEBF00E00CBF10E2A0E0B0E2EAE3FD
S1130220F7E100E00BBF02C007900D92A231B107C5
S1130230D9F720E2A2E1B0E201C01D92A232B207D6
S1130240E1F77CD20C949B0BDBCECF93DF931F9210
S1130250CDB7DEB78091162090911720E09112203F
S1130260F0911320BE016F5F7F4F19958981082E8D
S1130270000C990B0F90DF91CF910895FC019181AF
S113028095FFFDCF608380E090E00895FC019181AB
S11302909923ECF7808108954F925F926F927F9239
S11302A08F929F92AF92BF92EF92FF920F931F9300
S11302B0CF937C014A015B0128013901FC0184814F
S11302C082FF16C0D901C801689412F8B695A795A3
S11302D0979587951694D1F7B901A801032E36E1B5
S11302E076956795579547953A95D1F7302D15C072
S11302F0D901C801689413F8B695A7959795879581
S11303001694D1F7B901A801032E37E176956795C4
S1130310579547953A95D1F7302D88159905AA0533
S1130320BB0508F4A2C084169506A606B70608F411
S11303309EC0F701848182FD04C0880C991CAA1C0C
S1130340BB1CC301B201A50194014AD22F3F310560
S11303504105510508F48DC08FEF90E0A0E0B0E0B6
S1130360C9EF05C0281739074A075B0758F0880FFB
S1130370991FAA1FBB1FCD3F0CF48160CF5FC7300C
S113038089F74DC0CC230CF04AC0D501C401880FB5
S1130390991FAA1FBB1F880F991FAA1FBB1F880F75
S11303A0991FAA1FBB1F481A590A6A0A7B0ACE3F23
S11303B0ECF48DEF9FEF8C1B9109C7FD939504C05E
S11303C0440C551C661C771C8A95D2F7D501C401D0
S11303D0B695A79597958795BC01CD01640D751DBC
S11303E0861D971DA5019401FBD135C083E08C0FB8
S11303F0A501940104C0220F331F441F551F8A9581
S1130400D2F7DA01C901B695A79597958795BC01EE
S1130410CD01640D751D861D971DE2D11CC083E0BE
S11304208C0FA501940104C0220F331F441F551FD4
S11304308A95D2F7DA01C901B695A795979587955C
S1130440BC01CD01640D751D861D971DC9D12150B8
S1130450310941095109832F8F70C295C07FC82B80
S1130460F701C783268381E018C080E016C080E0CE
S113047014C0D501C401880F991FAA1FBB1F880F80
S1130480991FAA1FBB1F880F991FAA1FBB1F481AB9
S1130490590A6A0A7B0AC9EF8CCFCF911F910F9139
S11304A0FF90EF90BF90AF909F908F907F906F9050
S11304B05F904F9008950F931F93CF93DF93EC01B8
S11304C08B01009709F4E6C0803C910521F460E1BA
S11304D080E014D1DFC0C03881E0D80721F462E0A5
S11304E080E00CD1D7C0C115E1E0DE0721F461E062
S11304F080E004D1CFC0C038F3E0DF0721F461E02D
S113050081E0FCD0C7C0C03983E0D80721F461E0A2
S113051082E0F4D0BFC0C115E2E0DE0721F462E05E
S113052081E0ECD0B7C0C034F2E0DF0721F462E030
S113053082E0E4D0AFC0C03283E0D80721F464E0A5
S113054082E0DCD0A7C0C115E8E0DE0721F461E059
S113055083E0D4D09FC0C115F9E0DF0721F461E046
S113056084E0CCD097C0C1158AE0D80721F461E0BB
S113057085E0C4D08FC0C115EBE0DE0721F461E053
S113058086E0BCD087C0C034F8E0DF0721F462E025
S113059083E0B4D07FC0C03489E0D80721F462E09E
S11305A084E0ACD077C0C034EAE0DE0721F462E036
S11305B085E0A4D06FC0C039F8E0DF0721F464E01F
S11305C083E09CD067C0C03989E0D80721F464E097
S11305D084E094D05FC0C039EAE0DE0721F464E02F
S11305E085E08CD057C0C039FBE0DF0721F464E01C
S11305F086E084D04FC0C03C88E0D80721F468E08E
S113060083E07CD047C0C03CE9E0DE0721F468E029
S113061084E074D03FC0C03AF8E0DF0721F460E121
S113062083E06CD037C0C03A89E0D80721F460E198
S113063084E064D02FC0C03AEAE0DE0721F460E130
S113064085E05CD027C0C03AFBE0DF0721F460E11D
S113065086E054D01FC0C03B88E0D80721F460E294
S113066083E04CD017C0C03BE9E0DE0721F460E230
S113067084E044D00FC0C038F4E0DF0721F460E424
S113068083E03CD007C0C03A84E0D80719F460E4A2
S113069085E034D08D818F738D83F80195818481B9
S11306A0892B9681911198E0892B8D83F8014081E3
S11306B051816281738100E814E82EE130E0CE01BB
S11306C0EBDD9C8198609C839C8190619C83DF918D
S11306D0CF911F910F910895682F809116209091CA
S11306E01720E0911420F0911520199599231CF0FE
S11306F081E090E008958FEF9FEF0895CF93DF930B
S11307001F92CDB7DEB79FB79983F8949981E82FEC
S1130710F0E0E059FF4F60958081682360839FBFBC
S11307200F90DF91CF910895CF93DF93EB01AEDD6E
S11307308883DF91CF910895A1CD0895CF93DF935E
S1130740CDB7DEB72797CDBFDEBF80EA9AE08093AE
S11307501620909317208CE993E0809314209093B3
S1130760152084E993E08093122090931320E6E00F
S1130770F0E284818D8385818E8386818F8380815D
S11307809181A281B38189839A83AB83BC8360E125
S113079085E0B4DFBE016F5F7F4F80EA9AE08BDEB5
S11307A065E271E08CE693E03DD088E080938106B9
S11307B0CE0101966C010F2EFEE0EF2EF0E2FF2E2B
S11307C0F02D0DE010E2DF92CF92FF92EF9287D0EE
S11307D0DF92CF921F930F936FD0CDBFDEBFF3CFC5
S11307E0A1E21A2EAA1BBB1BFD010DC0AA1FBB1F31
S11307F0EE1FFF1FA217B307E407F50720F0A21BA3
S1130800B30BE40BF50B661F771F881F991F1A940F
S113081069F760957095809590959B01AC01BD0139
S1130820CF0108950F931F93CF93DF93009731F473
S11308306115710519F480E090E039C08B01EC0179
S11308406EE070E081E090E017D5FC01892B99F30C
S113085080E883830115110571F00287138781E80D
S113086083838091182090911920892B21F4E0939F
S11308701820F09319202097C9F0C087D18783816D
S11308808260838380911A2090911B20892B71F4BC
S1130890E0931A20F0931B2080911C2090911D203E
S11308A0892B21F4E0931C20F0931D20CF01DF91CC
S11308B0CF911F910F910895CF93DF93CDB7DEB7FA
S11308C0AE014A5F5F4FFA0161917191AF0180916E
S11308D01A2090911B2016D0DF91CF910895CF93C9
S11308E0DF93CDB7DEB7AE014A5F5F4FFA01619186
S11308F07191AF018091182090911920A6D3DF91B6
S1130900CF9108952F923F924F925F926F927F9270
S11309108F929F92AF92BF92CF92DF92EF92FF920B
S11309200F931F93CF93DF93CDB7DEB72B97CDBF34
S1130930DEBF6C017B018A01FC0116821782838170
S113094081FFBFC1CE0101963C01F6019381F701FD
S113095093FD859193FF81917F01882309F4ADC1B3
S1130960853239F493FD859193FF81917F0185321E
S113097021F4B60190E029D6E8CF912C212C312C1A
S1130980FFE1F315D8F08B3279F038F4803279F046
S11309908332A1F4232D20611DC08D3261F0803398
S11309A069F4232D216016C0832D8260382EE32D37
S11309B0E4603E2E2AC0F32DF8601DC037FC2DC024
S11309C020ED280F2A3040F08E32B9F436FC75C180
S11309D0232D2064322E19C036FE06C08AE0989E6C
S11309E0200D1124922E11C0EAE02E9E200D112418
S11309F0222EF32DF0623F2E08C08C3621F4832D75
S1130A008068382E02C0883641F4F70193FD859141
S1130A1093FF81917F018111B3CF982F9F7D9554CE
S1130A20933028F40C5F1F4F9FE399830DC08336E6
S1130A3031F0833771F0833509F055C020C0F801D7
S1130A40808189830E5F1F4F88248394912C5301E6
S1130A5012C02801F2E04F0E511CF801A080B180B1
S1130A6036FE03C0692D70E002C06FEF7FEFC50151
S1130A7063D54C018201F32DFF773F2E15C0280169
S1130A8022E0420E511CF801A080B18036FE03C062
S1130A90692D70E002C06FEF7FEFC5013BD54C01BB
S1130AA0F32DF0683F2E820133FC19C0822D90E0B3
S1130AB088169906A0F4B60180E290E086D52A94BF
S1130AC0F5CFF50137FC859137FE81915F01B601C1
S1130AD090E07BD521102A9421E0821A9108811498
S1130AE0910479F7E1C0843611F0893639F5F801BB
S1130AF037FE07C060817181828193810C5F1F4F33
S1130B0008C060817181072E000C880B990B0E5F61
S1130B101F4FF32DFF763F2E97FF09C090958095C8
S1130B20709561957F4F8F4F9F4FF0683F2E2AE05D
S1130B3030E0A3019FD5882E861844C0853731F450
S1130B40232D2F7EB22E2AE030E025C0932D997FED
S1130B50B92E8F36C1F018F4883579F0AEC08037DD
S1130B6019F0883721F0A9C0E92FE061BE2EB4FE48
S1130B700DC0FB2DF460BF2E09C034FE0AC0292F1E
S1130B802660B22E06C028E030E005C020E130E047
S1130B9002C020E132E0F801B7FE07C06081718134
S1130BA0828193810C5F1F4F06C06081718180E058
S1130BB090E00E5F1F4FA3015DD5882E8618FB2D94
S1130BC0FF773F2E36FE0DC0232D2E7FA22E8914D3
S1130BD058F434FE0BC032FC09C0832D8E7EA82E3F
S1130BE005C0B82CA32C03C0B82C01C0B92CA4FE9A
S1130BF00FC0FE01E80DF11D8081803321F49A2D90
S1130C00997EA92E09C0A2FE06C0B394B39404C071
S1130C108A2D867809F0B394A3FC10C0A0FE06C008
S1130C20B21480F4280C922C9B180DC0B21458F402
S1130C30B60180E290E0C9D4B394F8CFB21418F4AA
S1130C402B1802C0982C212CA4FE0FC0B60180E3FF
S1130C5090E0BBD4A2FE16C0A1FC03C088E790E0DC
S1130C6002C088E590E0B6010CC08A2D867851F068
S1130C70A1FE02C08BE201C080E2A7FC8DE2B601B6
S1130C8090E0A3D4891430F4B60180E390E09DD4BD
S1130C909A94F8CF8A94F301E80DF11D8081B6018E
S1130CA090E093D48110F6CF222009F44ECEB60101
S1130CB080E290E08AD42A94F7CFF6018681978166
S1130CC002C08FEF9FEF2B96CDBFDEBFDF91CF9198
S1130CD01F910F91FF90EF90DF90CF90BF90AF9056
S1130CE09F908F907F906F905F904F903F902F9048
S1130CF0089520FD09C0FC0123FD05C022FF02C0A8
S1130D007383628351834083089544FD17C046FD75
S1130D1017C0AB01BC01DA01FB01AA0FBB1FEE1F18
S1130D20FF1F1094D1F74A0F5B1F6E1F7F1FCB016B
S1130D30BA01660F771F881F991F09C033E001C0ED
S1130D4034E0660F771F881F991F3150D1F7620F67
S1130D50711D811D911D08950F931F93CF93DF93F0
S1130D608C01C801F4D3EC0197FD06C0C0D3892BD4
S1130D70C1F7B801CE0165D4CE01DF91CF911F91A7
S1130D800F9108958F929F92AF92BF92EF92FF922C
S1130D900F931F93CF93DF938C01D62F7A01B22E3A
S1130DA0D6D39C0133272B32310531F02D32310556
S1130DB059F48B2D8068B82ED15011F480E061C0B5
S1130DC0C801C5D397FDFACFCB2DCD7F2B2D207332
S1130DD0F9F48033E9F4AA24AA94AD0E09F43EC0D0
S1130DE0C801B5D397FD3AC09C012F7D3327283520
S1130DF0310541F4C264D25089F1C801A8D397FFE8
S1130E0007C02CC0B6FE02C0C26001C0C261DA2DA8
S1130E10812C912C540120ED280F283078F0C4FF48
S1130E2003C0B8010ED417C02A3040F0C6FFF9CF72
S1130E302F7D3FEE320F3630A0F727504C2FC501DF
S1130E40B40163DF4B015C01C260D15051F0C801B1
S1130E507ED397FFE0CFC1FD04C0B0CF812C912C8D
S1130E605401C7FF08C0B094A09490948094811C4E
S1130E70911CA11CB11C2C2FB501A401C70139DFA1
S1130E8081E0DF91CF911F910F91FF90EF90BF9080
S1130E90AF909F908F9008955F926F927F928F9200
S1130EA09F92AF92BF92CF92DF92EF92FF920F93F5
S1130EB01F93CF93DF93CDB7DEB7A097CDBFDEBF2F
S1130EC05C01962E7A01F9018E010F5F1F4F6801B4
S1130ED080E2D8011D928A95E9F7D50113968C908A
S1130EE080E090E0612C712C30E061E070E083FCE4
S1130EF0259183FE21918F01522E211103C080E0A0
S1130F0090E090C02E3511F4009751F1432F50E03A
S1130F10481759073CF42D3559F12D3219F477202F
S1130F2009F103C0772009F468C0452D469546951C
S1130F304695D601A40FB11D452D47708B0102C003
S1130F40000F111F4A95E2F7A8015C91452B4C93C1
S1130F50651459F0561410F45394E7CF5A94E5CF1E
S1130F6031E004C07724739401C0712C0196BFCF83
S1130F70772019F08E8180628E83311103C088241A
S1130F80839417C0F6019E012F5D3F4F80818095A9
S1130F9081932E173F07D1F7F2CFE114F10429F022
S1130FA0D7018C93F70131967F019A94812C992073
S1130FB0E9F0C501CCD297FD17C0FC01FF2723E05F
S1130FC0F595E7952A95E1F7EC0DFD1D208130E0BC
S1130FD0AC014770552702C0359527954A95E2F72D
S1130FE020FDDBCFB5012DD3811089CFE114F104AD
S1130FF011F0D7011C92C80115C0422F46954695A1
S11310004695D601A40FB11D422F47708B0102C033
S1131010000F111F4A95E2F7A8015C91452B4C93F0
S1131020622EA4CFA096CDBFDEBFDF91CF911F91DA
S11310300F91FF90EF90DF90CF90BF90AF909F9073
S11310408F907F906F905F9008955F926F927F92E0
S11310508F929F92AF92BF92CF92DF92EF92FF92C4
S11310600F931F93CF93DF936C01EB015A01FC01A3
S113107016821782512CF601E380FE01E3FC859170
S1131080E3FE8191182FEF01882309F4E0C090E07A
S11310902ED2892B19F0C6015FDEEDCF153241F453
S11310A0FE01E3FC1591E3FE1191EF01153271F499
S11310B0C6014DD297FDC9C0412F50E09C01332792
S11310C024173507C1F2B601BCD2C1C01A3239F4B3
S11310D0E3FC1591E3FE1191EF0101E001C000E092
S11310E0F12C20ED210F2A3078F402606F2D70E08E
S11310F080E090E040E209DEF62EFE01E3FC15916B
S1131100E3FE1191EF01EDCF01FF03C0F11003C025
S11311109EC0FF24FA94183619F01C3651F010C002
S1131120FE01E3FC1591E3FE1191EF01183641F441
S113113008600460FE01E3FC1591E3FE1191EF01E8
S1131140112309F484C0612F70E08CEF91E0D7D1B2
S1131150892B09F47CC000FD07C0F50180809180D3
S1131160C50102965C0102C0812C912C1E3649F403
S1131170F6014681578160E070E0202FC401B9DD9B
S11311807ACF1336A1F401FD02C0FF24F394C60103
S1131190DED197FD5AC08114910429F0F4018083B3
S11311A0C40101964C01FA94F110F1CF4AC01B35E9
S11311B051F49E01A4016F2DC6016EDEEC01892B52
S11311C009F03FC039C0C601C7DD97FD3EC01F36D8
S11311D049F128F4143621F1193639F125C01337B1
S11311E071F01537E9F020C08114910429F0F4015D
S11311F06082C40101964C01FA94FF2059F0C601A3
S1131200A6D13C0197FD06C072D1892B69F3B601C2
S1131210C30117D281149104A1F0F401108211C00A
S1131220006203C0006101C00064202FA4016F2D7F
S1131230C601A8DD811105C0F6018381807329F4FC
S113124006C000FD18CF539416CF552019F0852DF4
S113125090E002C08FEF9FEFDF91CF911F910F912C
S1131260FF90EF90DF90CF90BF90AF909F908F90C2
S11312707F906F905F9008950F931F93CF93DF93A8
S1131280869F8001879F100D969F100D1124C80121
S11312900DD0EC01009721F0A80160E070E045D189
S11312A0CE01DF91CF911F910F9108950F931F935A
S11312B0CF93DF938230910510F482E090E0E091C7
S11312C02020F091212020E030E0A0E0B0E0309731
S11312D019F1408151810281138148175907C8F0DF
S11312E08417950769F4109731F012960C931297AE
S11312F013961C9327C0009320201093212022C012
S11313002115310519F04217530718F49A01BD014C
S1131310EF01DF01F801DBCF21153105F9F0281BBE
S1131320390B2430310580F48A819B816115710564
S113133021F0FB018283938304C080932020909347
S11313402120FE01329644C0FE01E20FF31F819377
S1131350919322503109288339833AC020911E2069
S113136030911F20232B41F420910220309103203F
S113137020931E2030931F202091002030910120C3
S11313802115310541F42DB73EB740910420509109
S11313900520241B350BE0911E20F0911F20E2173D
S11313A0F307A0F42E1B3F0B2817390778F0AC0184
S11313B04E5F5F4F2417350748F04E0F5F1F409371
S11313C01E2050931F208193919302C0E0E0F0E02F
S11313D0CF01DF91CF911F910F910895CF93DF93A8
S11313E0009709F481C0FC01329712821382A09104
S11313F02020B0912120109781F420813181820F27
S1131400931F20911E2030911F202817390751F572
S1131410E0931E20F0931F2067C0ED0120E030E030
S1131420CE17DF0740F44A815B819E0141155105C7
S1131430F1F0EA01F5CFC283D38340815181840F57
S1131440951FC817D90759F488819981840F951F6E
S11314500296808391838A819B8182839383211561
S1131460310529F4E0932020F09321203DC0E901C7
S1131470EA83FB8349915991C40FD51FEC17FD07EB
S113148061F480819181840F951F0296E90188831C
S11314909983828193818A839B83E0E0F0E01296B2
S11314A08D919C911397009719F0FD01DC01F7CF02
S11314B08D919C9111979D012E5F3F4F820F931F39
S11314C020911E2030911F202817390769F4309786
S11314D029F4109220201092212002C0128213823B
S11314E0A0931E20B0931F20DF91CF9108959111F6
S11314F01FC1803219F089508550D0F70895FC013E
S11315000590061621F00020D9F7C00108953197FF
S1131510CF010895FC010590615070400110D8F787
S1131520809590958E0F9F1F0895DC0101C06D93E7
S113153041505040E0F70895FC0161507040019023
S11315400110D8F7809590958E0F9F1F0895CF9323
S1131550DF93EC012B8120FF33C026FF0AC02F7BD1
S11315602B838E819F8101968E839F838A8190E055
S113157029C022FF0FC0E881F9818081082E000C68
S1131580990B009719F420622B831AC03196E883D3
S1131590F9830EC0EA85FB85199597FF09C02B8155
S11315A0019611F080E201C080E1822B8B8308C098
S11315B02E813F812F5F3F4F2E833F83992702C0A7
S11315C08FEF9FEFDF91CF9108950F931F93CF93E8
S11315D0DF93FB01238121FD03C08FEF9FEF2CC01C
S11315E022FF16C046815781248135814217530753
S11315F044F4A081B1819D012F5F3F4F208331834B
S11316008C93268137812F5F3F4F2683378314C005
S11316108B01EC01FB010084F185E02D1995892BE8
S1131620E1F6D80116968D919C911797019616961E
S11316308D939C931797CE01DF91CF911F910F91BA
S11316400895FB01238120FF12C026FD10C08F3FA7
S11316503FEF930761F082832F7D206423832681EB
S113166037812150310926833783992708958FEFD5
S11316709FEF0895FA01AA27283051F1203181F112
S1131680E8946F936E7F6E5F7F4F8F4F9F4FAF4F86
S1131690B1E03ED0B4E03CD0670F781F891F9A1F99
S11316A0A11D680F791F8A1F911DA11D6A0F711D4D
S11316B0811D911DA11D20D009F468943F912AE059
S11316C0269F11243019305D3193DEF6CF01089541
S11316D0462F4770405D4193B3E00FD0C9F7F6CF72
S11316E0462F4F70405D4A3318F0495D31FD40523A
S11316F0419302D0A9F7EACFB4E0A69597958795D0
S113170077956795BA95C9F70097610571050895AE
S11317109B01AC010A2E069457954795379527955A
S1131720BA95C9F7620F731F841F951FA01D0895F2
S10D1730992788270895F894FFCF45
S113173A000022202000802500000300000A2573EF
S105174A000099
S9030000FC
