S00B00004144432E7372656351
S113000084C10000A2C10000A0C100009EC1000084
S11300109CC100009AC1000098C1000096C1000074
S113002094C1000092C1000090C100008EC1000084
S11300308CC100008AC1000088C1000086C1000094
S113004084C1000082C1000080C100007EC10000A4
S11300507CC100007AC1000078C1000076C10000B4
S113006074C1000072C1000070C100006EC10000C4
S11300706CC100006AC1000068C1000066C10000D4
S113008064C1000062C1000060C100005EC10000E4
S11300905CC100005AC1000058C10000D2C4000075
S11300A002C5000032C5000062C500004EC1000058
S11300B04CC100004AC1000048C1000046C1000014
S11300C044C1000042C1000040C100003EC1000024
S11300D03CC100003AC1000038C1000036C1000034
S11300E034C1000032C1000030C100002EC1000044
S11300F02CC100002AC1000028C1000026C1000054
S113010024C1000022C1000020C100001EC1000063
S11301101CC100001AC1000018C10000CAC30000BD
S1130120FAC300002AC400005AC400000EC1000033
S11301300CC100000AC1000008C1000006C1000093
S113014004C1000002C1000000C10000FEC00000A4
S1130150FCC00000FAC00000F8C00000F6C00000B7
S1130160F4C00000F2C00000F0C00000EEC00000C7
S1130170ECC00000EAC00000E8C00000E6C00000D7
S1130180E4C00000E2C00000E0C00000DEC00000E7
S1130190DCC00000DAC00000D8C00000D6C00000F7
S11301A0D4C00000D2C00000D0C00000CEC0000007
S11301B0CCC00000CAC00000C8C00000C6C0000017
S11301C0C4C00000C2C00000C0C00000BEC0000027
S11301D0BCC00000BAC00000B8C00000B6C0000037
S11301E0B4C00000B2C00000B0C00000AEC0000047
S11301F0ACC00000AAC00000A8C000006E616E0080
S1130200696E660000407A10F35A00A0724E180915
S11302100010A5D4E80000E87648170000E40B5469
S1130220020000CA9A3B000000E1F5050000809638
S11302309800000040420F000000A086010000006A
S1130240102700000000E803000000006400000024
S113025000000A00000000000100000000002C76ED
S1130260D888DC674F0823DFC1DFAE59E1B1B79608
S1130270E5E3E453C63AE651997696E8E6C2842665
S1130280EB898C9B62ED407C6FFCEFBC9C9F40F241
S1130290BAA56FA5F490055A2AF75C936B6CF967BD
S11302A06DC11BFCE0E40D47FEF520E6B500D0ED82
S11302B0902E0300943577050080841E08000020EA
S11302C04E0A000000C80C333333330F986E128388
S11302D01141EF8D2114893BE65516CFFEE6DB185C
S11302E0D1844B381BF77C1D901DA4BBE424203221
S11302F084725E228100C9F124ECA1E53D27636488
S1130300696E6F70737578585B0011241FBECFEF50
S1130310CDBFDFE5DEBF00E00CBF10E2A0E0B0E23D
S1130320EAEEF7E200E00BBF02C007900D92A431A1
S1130330B107D9F720E2A4E1B0E201C01D92A033D5
S1130340B207E1F707D60C94F3135ACECF93DF9399
S11303501F92CDB7DEB780911E2090911F20E091AF
S11303601620F0911720BE016F5F7F4F1995898188
S1130370082E000C990B0F90DF91CF9108958115F1
S113038022E0920761F48091152091E0980F9093F8
S11303901520811112C062E081E097C50895803470
S11303A0924059F48091142091E0980F9093142076
S11303B0811103C062E082E088C50895811522E0BE
S11303C0920759F480911520815080931520811152
S11303D011C062E081E08FC508958034924051F4E9
S11303E080911420815080931420811103C062E015
S11303F082E081C50895EF92FF921F93CF93DF931C
S11304001F921F92CDB7DEB77C018FB78983F89412
S11304101981C701B4DFF7018081816080831FBF28
S1130420809121208F3F09F4FFCF8FB78A83F894FE
S11304309A81E0E2F0E281818F5F81839FBF0F9018
S11304400F90DF91CF911F91FF90EF900895FC01E1
S1130450918195FFFDCF608380E090E00895FC01D9
S113046091819923ECF7808108954F925F926F9266
S11304707F928F929F92AF92BF92EF92FF920F93CF
S11304801F93CF937C014A015B0128013901FC01D0
S1130490848182FF16C0D901C801689412F8B69508
S11304A0A795979587951694D1F7B901A801032EBE
S11304B036E176956795579547953A95D1F7302D5E
S11304C015C0D901C801689413F8B695A7959795F6
S11304D087951694D1F7B901A801032E37E17695D3
S11304E06795579547953A95D1F7302D8815990515
S11304F0AA05BB0508F4A6C084169506A606B70689
S113050008F4A2C0F701848182FD04C0880C991C00
S1130510AA1CBB1CC301B201A50194010E94670D72
S11305202F3F31054105510508F490C08FEF90E04D
S1130530A0E0B0E0C9EF05C0281739074A075B07F8
S113054058F0880F991FAA1FBB1FCD3F0CF4816080
S1130550CF5FC73089F74FC0CC230CF04CC0D50116
S1130560C401880F991FAA1FBB1F880F991FAA1FB8
S1130570BB1F880F991FAA1FBB1F481A590A6A0A72
S11305807B0ACE3FF4F48DEF9FEF8C1B9109C7FDDE
S1130590939504C0440C551C661C771C8A95D2F7AD
S11305A0D501C401B695A79597958795BC01CD0152
S11305B0640D751D861D971DA50194010E94670D8C
S11305C037C083E08C0FA501940104C0220F331FB0
S11305D0441F551F8A95D2F7DA01C901B695A7952C
S11305E097958795BC01CD01640D751D861D971DDA
S11305F00E94670D1DC083E08C0FA501940104C007
S1130600220F331F441F551F8A95D2F7DA01C901FF
S1130610B695A79597958795BC01CD01640D751D79
S1130620861D971D0E94670D21503109410951090A
S1130630832F8F70C295C07FC82BF701C783268391
S113064081E018C080E016C080E014C0D501C40168
S1130650880F991FAA1FBB1F880F991FAA1FBB1FB2
S1130660880F991FAA1FBB1F481A590A6A0A7B0AD6
S1130670C9EF89CFCF911F910F91FF90EF90BF9059
S1130680AF909F908F907F906F905F904F90089560
S11306900F931F93CF93DF93EC018B01009709F421
S11306A0E6C0803C910521F460E180E00ED4DFC017
S11306B0C03881E0D80721F462E080E006D4D7C0D6
S11306C0C115E1E0DE0721F461E080E0FED3CFC094
S11306D0C038F3E0DF0721F461E081E0F6D3C7C05E
S11306E0C03983E0D80721F461E082E0EED3BFC0D3
S11306F0C115E2E0DE0721F462E081E0E6D3B7C091
S1130700C034F2E0DF0721F462E082E0DED3AFC060
S1130710C03283E0D80721F464E082E0D6D3A7C0D6
S1130720C115E8E0DE0721F461E083E0CED39FC089
S1130730C115F9E0DF0721F461E084E0C6D397C076
S1130740C1158AE0D80721F461E085E0BED38FC0EB
S1130750C115EBE0DE0721F461E086E0B6D387C083
S1130760C034F8E0DF0721F462E083E0AED37FC059
S1130770C03489E0D80721F462E084E0A6D377C0CE
S1130780C034EAE0DE0721F462E085E09ED36FC066
S1130790C039F8E0DF0721F464E083E096D367C052
S11307A0C03989E0D80721F464E084E08ED35FC0C7
S11307B0C039EAE0DE0721F464E085E086D357C05F
S11307C0C039FBE0DF0721F464E086E07ED34FC04C
S11307D0C03C88E0D80721F468E083E076D347C0C2
S11307E0C03CE9E0DE0721F468E084E06ED33FC05A
S11307F0C03AF8E0DF0721F460E183E066D337C054
S1130800C03A89E0D80721F460E184E05ED32FC0C8
S1130810C03AEAE0DE0721F460E185E056D327C060
S1130820C03AFBE0DF0721F460E186E04ED31FC04D
S1130830C03B88E0D80721F460E283E046D317C0C8
S1130840C03BE9E0DE0721F460E284E03ED30FC060
S1130850C038F4E0DF0721F460E483E036D307C056
S1130860C03A84E0D80719F460E485E02ED38D8182
S11308708F738D83F80195818481892B96819111E1
S113088098E0892B8D83F8014081518162817381C5
S113089000E018E428EE31E0CE01E7DD9C819860A9
S11308A09C839C8190619C83DF91CF911F910F91D8
S11308B008951F920F920FB60F9211240BB60F9248
S11308C02F933F934F935F936F937F938F939F9354
S11308D0AF93BF93EF93FF9340912402509125026D
S11308E0E0911A20F0911B2061E080E092E01995DC
S11308F0FF91EF91BF91AF919F918F917F916F91F4
S11309005F914F913F912F910F900BBE0F900FBEAF
S11309100F901F9018951F920F920FB60F921124EB
S11309200BB60F922F933F934F935F936F937F93E5
S11309308F939F93AF93BF93EF93FF9340912C02B8
S113094050912D02E0911A20F0911B2062E080E08A
S113095092E01995FF91EF91BF91AF919F918F9183
S11309607F916F915F914F913F912F910F900BBEAB
S11309700F900FBE0F901F9018951F920F920FB6F5
S11309800F9211240BB60F922F933F934F935F93C3
S11309906F937F938F939F93AF93BF93EF93FF9343
S11309A04091340250913502E0911A20F0911B20BD
S11309B064E080E092E01995FF91EF91BF91AF91CF
S11309C09F918F917F916F915F914F913F912F9163
S11309D00F900BBE0F900FBE0F901F9018951F9293
S11309E00F920FB60F9211240BB60F922F933F93D1
S11309F04F935F936F937F938F939F93AF93BF9323
S1130A00EF93FF9340913C0250913D02E0911A20F4
S1130A10F0911B2068E080E092E01995FF91EF913E
S1130A20BF91AF919F918F917F916F915F914F9102
S1130A303F912F910F900BBE0F900FBE0F901F9000
S1130A4018951F920F920FB60F9211240BB60F92A6
S1130A502F933F934F935F936F937F938F939F93C2
S1130A60AF93BF93EF93FF9340916402509165025B
S1130A70E0911820F091192061E080E492E019954A
S1130A80FF91EF91BF91AF919F918F917F916F9162
S1130A905F914F913F912F910F900BBE0F900FBE1E
S1130AA00F901F9018951F920F920FB60F9211245A
S1130AB00BB60F922F933F934F935F936F937F9354
S1130AC08F939F93AF93BF93EF93FF9340916C02E7
S1130AD050916D02E0911820F091192062E080E4B9
S1130AE092E01995FF91EF91BF91AF919F918F91F2
S1130AF07F916F915F914F913F912F910F900BBE1A
S1130B000F900FBE0F901F9018951F920F920FB663
S1130B100F9211240BB60F922F933F934F935F9331
S1130B206F937F938F939F93AF93BF93EF93FF93B1
S1130B304091740250917502E0911820F0911920AF
S1130B4064E080E492E01995FF91EF91BF91AF9139
S1130B509F918F917F916F915F914F913F912F91D1
S1130B600F900BBE0F900FBE0F901F9018951F9201
S1130B700F920FB60F9211240BB60F922F933F933F
S1130B804F935F936F937F938F939F93AF93BF9391
S1130B90EF93FF9340917C0250917D02E0911820E5
S1130BA0F091192068E080E492E01995FF91EF91AB
S1130BB0BF91AF919F918F917F916F915F914F9171
S1130BC03F912F910F900BBE0F900FBE0F901F906F
S1130BD01895BF92CF92DF92EF92FF920F931F93DB
S1130BE0CF93DF931F92CDB7DEB78C017B018115C4
S1130BF022E0920771F461E270E082E091D1C82EA4
S1130C00D12C60E270E082E08BD1DC2CCC24C82AA9
S1130C1010C080349240C1F565E270E082E080D17A
S1130C20C82ED12C64E270E082E07AD1DC2CCC2492
S1130C30C82A8FB78983F894B980C801A0DBF8016A
S1130C40808192E09083C486D586F7012581368120
S1130C50F801208F318FF7019281F8019283F70117
S1130C609481F8019483F7019381F8019383F70148
S1130C709181F80191838170F7019081892BF801AA
S1130C808083C8019BDBBFBE0F90DF91CF911F9182
S1130C900F91FF90EF90DF90CF90BF900895DF9277
S1130CA0EF92FF920F931F93CF93DF931F92CDB7D1
S1130CB0DEB78C017B018FB78983F894D980C80192
S1130CC05EDBF8018081807CF7018083F801808DF0
S1130CD0918DF70185839683F8018281F7018283E0
S1130CE0F8018481F7018483F8018381F701838308
S1130CF0F8018181F7018183C80160DBDFBE0F90B9
S1130D00DF91CF911F910F91FF90EF90DF900895A5
S1130D10AF92BF92CF92DF92EF92FF920F931F9305
S1130D20CF93DF931F92CDB7DEB76C01B62E7A0155
S1130D30862F837029F4962F9695969582E002C0AB
S1130D40962F80E090FF8F5F8601005E1F4F98E032
S1130D50899F000D111D11248FB78983F894A980F0
S1130D60C6010DDBF7018081F8018083F7018281E0
S1130D70F8018283F7018181F8018183B0FE04C008
S1130D80F7018381F8018683C60118DBAFBE0F909B
S1130D90DF91CF911F910F91FF90EF90DF90CF9053
S1130DA0BF90AF900895AF92BF92CF92DF92EF922F
S1130DB0FF920F931F93CF93DF931F92CDB7DEB7AC
S1130DC06C01B62E7A01862F837029F4962F96959E
S1130DD0969582E002C0962F80E090FF8F5F860197
S1130DE0005E1F4F98E0899F000D111D11248FB7DD
S1130DF08983F894A980C601C2DAF8018081F701D9
S1130E008083F8018281F7018283F8018181F701EF
S1130E108183B0FE04C0F8018681F7018383C60193
S1130E20CDDAAFBE0F90DF91CF911F910F91FF905C
S1130E30EF90DF90CF90BF90AF900895682F80918E
S1130E401E2090911F20E0911C20F0911D201995E7
S1130E5099231CF081E090E008958FEF9FEF0895AF
S1130E60CF93DF931F921F92CDB7DEB78FEF80939E
S1130E70700080937100809372008093730080935C
S1130E80740080937500809376008FB78A83F894FA
S1130E909A81E0E5F0E08081826080839FBF818158
S1130EA081FFFDCF61E080E490E044D08FB7898377
S1130EB0F8949981E0E5F0E080818E7F80839FBF84
S1130EC00F900F90DF91CF910895CF93DF931F92EE
S1130ED0CDB7DEB79FB79983F8949981E82FF0E0F6
S1130EE0E059FF4F60958081682360839FBF0F9016
S1130EF0DF91CF910895CF93DF931F92CDB7DEB7E3
S1130F009FB79983F8949981E82FF0E0E059FF4F57
S1130F108081682B60839FBF0F90DF91CF910895EC
S1130F204091CA01E62FF72F8093CA018491409320
S1130F30CA0108951BBEFC0128ED24BF60830895F7
S1130F40CF93DF93EB018BDA8883DF91CF91089500
S1130F507ECA0895CF93DF93CDB7DEB72C97CDBF6C
S1130F60DEBF7EDFBE016F5F7F4F80E092E097DEE1
S1130F70AE01485F5F4F61E080E092E014DF8A8158
S1130F809B819F789B83817E80618A831C8284E01D
S1130F908D838BE1888789E08987BE016F5F7F4FEE
S1130FA080E092E016DEAE01485F5F4F61E080E0D2
S1130FB092E0AEDE80EA9AE080931E2090931F2098
S1130FC088EA97E080931C2090931D2080EA97E0A4
S1130FD08093162090931720E6E0F0E284818D83BD
S1130FE085818E8386818F8380819181A281B38163
S1130FF089839A83AB83BC8360E185E066DFBE01AD
S11310006F5F7F4F80EA9AE043DB66EA71E08EE12E
S113101097E06DD688E08093810680E092E0EBD97A
S11310203E018CE0680E711C0F2EFDE02F2EF0E2C5
S11310303F2EF02D812C00E012E0992493940F2E82
S1131040F0E14F2EF0E25F2EF02D7F926F923F92EF
S11310502F92E6D60F900F900F900F908C858823D7
S1131060A1F3E12C6894FF24F5F8A12CB12CC12C38
S1131070D82C8FB78983F8949981F8018081846092
S113108080839FBFF801868180FFFCCF96828FB753
S11310908887F894888564A175A18FBF072E000CFA
S11310A0880B990BA2D09B01AC016A2D7B2D8C2D52
S11310B09D2D35D0A62EB72EC82ED92EF1E0EF1ACD
S11310C0F108B9F620E030E040E059E31AD120E01D
S11310D030E04AE754E415D120E030E040E85CE336
S11310E010D120E030E040E05AE30BD120E030E0C2
S11310F040E653E406D120E030E04AEA52E40ED060
S11311009F938F937F936F935F924F9276D60F90B6
S11311100F900F900F900F900F9097CF5058BB27C0
S1131120AA270ED0B4C0A5D030F0AAD020F031F454
S11311309F3F11F41EF49AC00EF4E095E7FB90C0B3
S1131140E92FB6D080F3BA176207730784079507AF
S113115018F071F49EF5CEC00EF4E0950B2EBA2F64
S1131160A02D0B01B90190010C01CA01A0011124A9
S1131170FF27591B99F0593F50F4503E68F11A1655
S1131180F040A22F232F342F4427585FF3CF4695E6
S113119037952795A795F0405395C9F77EF41F1608
S11311A0BA0B620B730B840BBAF09150A1F0FF0FD2
S11311B0BB1F661F771F881FC2F70EC0BA0F621FBE
S11311C0731F841F48F4879577956795B795F795AE
S11311D09E3F08F0B3CF9395880F08F09927EE0F40
S11311E0979587950895E89409C097FB3EF49095E8
S11311F08095709561957F4F8F4F9F4F9923A9F0EC
S1131200F92F96E9BB279395F6958795779567957A
S1131210B795F111F8CFFAF4BB0F11F460FF1BC0BE
S11312206F5F7F4F8F4F9F4F16C0882311F096E951
S113123011C0772321F09EE8872F762F05C06623FF
S113124071F096E8862F70E060E02AF09A95660FB8
S1131250771F881FDAF7880F9695879597F9089571
S113126097F99F6780E870E060E008959FEF80EC55
S1131270089500240A9416161706180609060895F8
S113128000240A9412161306140605060895092E5E
S11312900394000C11F4882352F0BB0F40F4BF2BCD
S11312A011F460FF04C06F5F7F4F8F4F9F4F08950D
S11312B057FD9058440F551F59F05F3F71F0479503
S11312C0880F97FB991F61F09F3F79F087950895E8
S11312D0121613061406551FF2CF4695F1DF08C007
S11312E0161617061806991FF1CF86957105610524
S11312F008940895E894BB2766277727CB0197F9CC
S113130008950BD0C4CFB5DF28F0BADF18F09523C9
S113131009F0A6CFABCF1124EECFCADFA0F3959F7F
S1131320D1F3950F50E0551F629FF001729FBB27C8
S1131330F00DB11D639FAA27F00DB11DAA1F649F74
S11313406627B00DA11D661F829F2227B00DA11D27
S1131350621F739FB00DA11D621F839FA00D611DAD
S1131360221F749F3327A00D611D231F849F600DCE
S1131370211D822F762F6A2F11249F5750408AF007
S1131380E1F088234AF0EE0FFF1FBB1F661F771F93
S1131390881F91505040A9F79E3F510570F060CFCF
S11313A0AACF5F3FECF3983EDCF38695779567957B
S11313B0B795F795E7959F5FC1F7FE2B880F911DB1
S11313C09695879597F908952F923F924F925F9241
S11313D06F927F928F929F92AF92BF92CF92DF9241
S11313E0EF92FF920F931F93CF93DF93CDB7DEB7A6
S11313F06097CDBFDEBF7C011B016A01FC01168230
S11314001782838181FF2AC39E012F5F3F4F3901D9
S1131410F7019381F10193FD859193FF81911F0160
S1131420882309F417C3853239F493FD859193FF1A
S113143081911F01853231F4B70190E0A2D45601A5
S11314406501E6CF10E0512C912CFFE1F915D8F09D
S11314508B3279F038F4803279F08332A1F4F92DAB
S1131460F0612EC08D3261F0803369F4292D216042
S11314702DC0392D3260932E892D8460982E2AC078
S1131480E92DE86015C097FC2DC020ED280F2A3007
S113149088F496FE06C03AE0139F200D1124122F03
S11314A019C08AE0589E200D1124522EE92DE062C5
S11314B09E2E10C08E3231F496FCCCC2F92DF0640D
S11314C09F2E08C08C3621F4292D2068922E02C04C
S11314D0883641F4F10193FD859193FF81911F01B9
S11314E08111B3CF9BEB980F933020F4992D906129
S11314F0805E07C09BE9980F933008F059C1992D7D
S11315009F7E96FF16E09F73992E853619F490649A
S1131510992E08C0863621F4392F3068932E02C0E4
S11315201111115097FE07C01C3350F44424439406
S1131530410E27E00BC0183038F027E017E005C053
S113154027E09CE3492E02C0212F412C560184E060
S1131550A80EB11CF6016081718182819381042DF2
S1131560A301D7D26C01F981FC87F0FF02C0F3FF1D
S113157006C091FC06C092FE06C000E205C00DE262
S113158003C00BE201C000E08C858C7019F00111DE
S113159043C280C297FE10C04C0CFC85F4FF04C00B
S11315A08A81813309F44A94141474F528E02415CB
S11315B078F588E0482E2CC096FC2AC0812F90E054
S11315C08C159D059CF03CEFC3163FEFD30674F0D9
S11315D0892D8068982E0AC0E2E0F0E0EC0FFD1F30
S11315E0E10FF11D8081803319F411501111F4CFF2
S11315F097FE0EC044244394410E812F90E0C816F8
S1131600D9062CF41C1904C04424439401C010E0EE
S113161097FE06C01C141D0434F4C601019605C0CF
S113162085E090E002C081E090E001110196112371
S113163031F0212F30E02F5F3F4F820F931F252D74
S113164030E08217930714F4581A01C0512C892DE5
S1131650897041F4552031F0B70180E290E091D3D4
S11316605A94F8CF002321F0B701802F90E089D35A
S113167093FC08C0552031F0B70180E390E081D39A
S11316805A94F8CF97FE4AC04601D7FE02C0812C77
S1131690912CC60188199909F301E80FF91FED8708
S11316A0FE879601241931092F87388B012F10E00A
S11316B01195019511093FEF8316930621F4B701A3
S11316C08EE290E05ED3C814D9044CF08F859889DB
S11316D08815990524F4ED85FE85818101C080E398
S11316E0F1E08F1A91082D853E852F5F3F4F2D879E
S11316F03E878016910624F0B70190E042D3DBCFF9
S1131700C814D90441F49A81963320F4953319F41A
S11317103C8534FF81E3B70190E048C08A8181337E
S113172019F09C859F7E9C87B70190E02AD3111104
S113173005C094FC16C085E690E015C0B7018EE2A2
S113174090E01FD31E5F82E001E0080FF301E80F71
S1131750F11D8081B70190E014D3802F0113F4CFE1
S1131760E8CF85E490E0B7010CD3D7FC06C0C114E0
S1131770D10441F4EC85E4FF05C0D194C194D108AF
S11317808DE201C08BE2B70190E0FBD280E32AE056
S1131790C216D1042CF08F5FFAE0CF1AD108F7CF2C
S11317A0B70190E0EED2B701C601C096EAD249C1B2
S11317B0833631F0833779F0833509F052C01FC086
S11317C0560132E0A30EB11CF6018081898301E049
S11317D010E0630111C05601F2E0AF0EB11CF60136
S11317E0C080D18096FE03C0612F70E002C06FEF0D
S11317F07FEFC60171D28C01F92DFF7713C056011A
S113180022E0A20EB11CF601C080D18096FE03C076
S1131810612F70E002C06FEF7FEFC60152D28C01DE
S1131820F92DF0689F2EF3FD18C0852D90E0081760
S1131830190798F4B70180E290E0A3D25A94F5CF47
S1131840F60197FC859197FE81916F01B70190E0B5
S113185098D251105A94015011090115110581F7BC
S1131860F0C0843611F0893659F5560197FE09C047
S113187024E0A20EB11CF601608171818281938102
S11318800AC0F2E0AF0EB11CF60160817181072E2F
S1131890000C880B990BF92DFF769F2E97FF09C03A
S11318A090958095709561957F4F8F4F9F4FF0680D
S11318B09F2E2AE030E0A301C6D2C82EC6183EC02F
S11318C0092D853721F40F7E2AE030E01DC0097F01
S11318D08F3691F018F4883559F0BCC0803719F070
S11318E0883711F0B7C0006104FF09C0046007C065
S11318F094FE08C0066006C028E030E005C020E180
S113190030E002C020E132E0560107FF09C084E064
S1131910A80EB11CF601608171818281938108C097
S1131920F2E0AF0EB11CF6016081718180E090E0BD
S1131930A30189D2C82EC6180F77902E96FE0BC02D
S1131940092D0E7FC11650F494FE0AC092FC08C003
S1131950092D0E7E05C0DC2C092D03C0DC2C01C032
S1131960D12E04FF0DC0FE01EC0DF11D80818033EA
S113197011F4097E09C002FF06C0D394D39404C0B5
S1131980802F867809F0D39403FD10C000FF06C0B1
S11319901C2DD51478F4150D1D190CC0D51450F454
S11319A0B70180E290E0EDD1D394F8CFD51410F4D0
S11319B05D1801C0512C04FF0FC0B70180E390E013
S11319C0E0D102FF16C001FD03C088E790E002C029
S11319D088E590E0B7010CC0802F867851F001FFB4
S11319E002C08BE201C080E207FD8DE2B70190E006
S11319F0C8D1C11630F4B70180E390E0C2D11150D0
S1131A00F8CFCA94F301EC0DF11D8081B70190E089
S1131A10B8D1C110F6CF15C0F4E0F51550F584E047
S1131A20581A93FE1EC0011125C02C8523FF27C020
S1131A300CEF11E0392D3071932EF801849181114E
S1131A4021C0552009F4FCCCB70180E290E099D183
S1131A505A94F7CFF7018681978123C08FEF9FEFC8
S1131A6020C0B70180E290E08CD15A945110F9CF94
S1131A70DACF512CB701802F90E083D1D6CF00E08C
S1131A8012E0D8CF91108052B70190E07AD10F5F65
S1131A901F4FD3CF23E0251510F483E0C1CF512C81
S1131AA0C4CF6096CDBFDEBFDF91CF911F910F9160
S1131AB0FF90EF90DF90CF90BF90AF909F908F906A
S1131AC07F906F905F904F903F902F900895A1E288
S1131AD01A2EAA1BBB1BFD010DC0AA1FBB1FEE1FA4
S1131AE0FF1FA217B307E407F50720F0A21BB30BEF
S1131AF0E40BF50B661F771F881F991F1A9469F76B
S1131B0060957095809590959B01AC01BD01CF01C6
S1131B100895283008F027E03327DA01990F311DA2
S1131B2087FD916000966105710539F432602E5F7E
S1131B303D9330E32A95E1F708959F3F30F08038D4
S1131B407105610509F03C5F3C5F3D93913008F0FD
S1131B508068911DDF93CF931F930F93FF92EF92B1
S1131B60192F987F9695E92F96959695E90FFF275B
S1131B70E25AFD4F99273327EE24FF24A701E701FA
S1131B8005900894079428F4360FE71EF81E491FA1
S1131B90511D660F771F881F991F0694A1F70590A2
S1131BA0079428F4E70EF81E491F561FC11D770F2E
S1131BB0881F991F661F0694A1F70590079428F4BF
S1131BC0F80E491F561FC71FD11D880F991F661F86
S1131BD0771F0694A1F70590079420F4490F561F28
S1131BE0C71FD81F990F661F771F881F0694A9F770
S1131BF084911095177041F0D695C79557954795E0
S1131C00F794E7941A95C1F7E4E0F2E0689415902C
S1131C10159135916591959105907FE27395E11841
S1131C20F10A430B560BC90BD009C0F7E10CF11EA6
S1131C30431F561FC91FD01D7EF4703311F48A95BB
S1131C40E6CFE894015030F0080F0AF40027021799
S1131C5008F4202F2395022F7A3328F079E37D931B
S1131C602A95E9F710C07D932A9589F606949795ED
S1131C706795379517951794E118F10A430B560B9E
S1131C80C90BD00998F023957E9173957A3308F0A7
S1131C9070E37C932013B8F77E9170617D9330F0EC
S1131CA0839571E37D9370E32A95E1F71124EF9016
S1131CB0FF900F911F91CF91DF91992787FD909508
S1131CC00895FC010590615070400110D8F780958B
S1131CD090958E0F9F1F0895FC01615070400190F4
S1131CE00110D8F7809590958E0F9F1F08950F933C
S1131CF01F93CF93DF93009731F46115710519F4A5
S1131D0080E090E039C08B01EC016EE070E081E08E
S1131D1090E0BAD3FC01892B99F380E88383011501
S1131D20110571F00287138781E88383809126204F
S1131D3090912720892B21F4E0932620F0932720EB
S1131D402097C9F0C087D187838182608383809183
S1131D50282090912920892B71F4E0932820F09376
S1131D60292080912A2090912B20892B21F4E09323
S1131D702A20F0932B20CF01DF91CF911F910F9157
S1131D8008950F931F93CF93DF93FB01238121FDCC
S1131D9003C08FEF9FEF2CC022FF16C046815781EE
S1131DA0248135814217530744F4A081B1819D01F8
S1131DB02F5F3F4F208331838C93268137812F5FA0
S1131DC03F4F2683378314C08B01EC01FB01008451
S1131DD0F185E02D1995892BE1F6D80116968D91A0
S1131DE09C911797019616968D939C931797CE0105
S1131DF0DF91CF911F910F910895CF93DF93CDB7CA
S1131E00DEB7AE014A5F5F4FFA0161917191AF0194
S1131E108091282090912920D7DADF91CF910895DD
S1131E20CF93DF93CDB7DEB7AE014A5F5F4FFA01C0
S1131E3061917191AF0180912620909127200DD25C
S1131E40DF91CF910895FA01AA27283051F120316A
S1131E5081F1E8946F936E7F6E5F7F4F8F4F9F4F3A
S1131E60AF4FB1E03ED0B4E03CD0670F781F891F7C
S1131E709A1FA11D680F791F8A1F911DA11D6A0F4A
S1131E80711D811D911DA11D20D009F468943F91FD
S1131E902AE0269F11243019305D3193DEF6CF01FC
S1131EA00895462F4770405D4193B3E00FD0C9F7C2
S1131EB0F6CF462F4F70405D4A3318F0495D31FD2F
S1131EC04052419302D0A9F7EACFB4E0A695979582
S1131ED0879577956795BA95C9F700976105710558
S1131EE008959B01AC010A2E0694579547953795A2
S1131EF02795BA95C9F7620F731F841F951FA01DFC
S1131F00089520FD09C0FC0123FD05C022FF02C085
S1131F107383628351834083089544FD17C046FD53
S1131F2017C0AB01BC01DA01FB01AA0FBB1FEE1FF6
S1131F30FF1F1094D1F74A0F5B1F6E1F7F1FCB0149
S1131F40BA01660F771F881F991F09C033E001C0CB
S1131F5034E0660F771F881F991F3150D1F7620F45
S1131F60711D811D911D08950F931F93CF93DF93CE
S1131F708C01C801DED3EC0197FD06C0C0D3892BC8
S1131F80C1F7B801CE0113D4CE01DF91CF911F91D7
S1131F900F9108958F929F92AF92BF92EF92FF920A
S1131FA00F931F93CF93DF938C01D62F7A01B22E18
S1131FB0C0D39C0133272B32310531F02D3231054A
S1131FC059F48B2D8068B82ED15011F480E061C093
S1131FD0C801AFD397FDFACFCB2DCD7F2B2D207326
S1131FE0F9F48033E9F4AA24AA94AD0E09F43EC0AE
S1131FF0C8019FD397FD3AC09C012F7D3327283514
S1132000310541F4C264D25089F1C80192D397FFDB
S113201007C02CC0B6FE02C0C26001C0C261DA2D86
S1132020812C912C540120ED280F283078F0C4FF26
S113203003C0B801BCD317C02A3040F0C6FFF9CFA3
S11320402F7D3FEE320F3630A0F727504C2FC501BD
S1132050B40163DF4B015C01C260D15051F0C8018F
S113206068D397FFE0CFC1FD04C0B0CF812C912C81
S11320705401C7FF08C0B094A09490948094811C2C
S1132080911CA11CB11C2C2FB501A401C70139DF7F
S113209081E0DF91CF911F910F91FF90EF90BF905E
S11320A0AF909F908F9008955F926F927F928F92DE
S11320B09F92AF92BF92CF92DF92EF92FF920F93D3
S11320C01F93CF93DF93CDB7DEB7A097CDBFDEBF0D
S11320D05C01962E7A01F9018E010F5F1F4F680192
S11320E080E2D8011D928A95E9F7D50113968C9068
S11320F080E090E0612C712C30E061E070E083FCC2
S1132100259183FE21918F01522E211103C080E07D
S113211090E090C02E3511F4009751F1432F50E018
S1132120481759073CF42D3559F12D3219F477200D
S113213009F103C0772009F468C0452D46954695FA
S11321404695D601A40FB11D452D47708B0102C0E1
S1132150000F111F4A95E2F7A8015C91452B4C939F
S1132160651459F0561410F45394E7CF5A94E5CFFC
S113217031E004C07724739401C0712C0196BFCF61
S1132180772019F08E8180628E83311103C08824F8
S1132190839417C0F6019E012F5D3F4F8081809587
S11321A081932E173F07D1F7F2CFE114F10429F000
S11321B0D7018C93F70131967F019A94812C992051
S11321C0E9F0C501B6D297FD17C0FC01FF2723E053
S11321D0F595E7952A95E1F7EC0DFD1D208130E09A
S11321E0AC014770552702C0359527954A95E2F70B
S11321F020FDDBCFB501DBD2811089CFE114F104DE
S113220011F0D7011C92C80115C0422F469546957E
S11322104695D601A40FB11D422F47708B0102C011
S1132220000F111F4A95E2F7A8015C91452B4C93CE
S1132230622EA4CFA096CDBFDEBFDF91CF911F91B8
S11322400F91FF90EF90DF90CF90BF90AF909F9051
S11322508F907F906F905F9008955F926F927F92BE
S11322608F929F92AF92BF92CF92DF92EF92FF92A2
S11322700F931F93CF93DF936C01EB015A01FC0181
S113228016821782512CF601E380FE01E3FC85914E
S1132290E3FE8191182FEF01882309F4E0C090E058
S11322A02ED2892B19F0C6015FDEEDCF153241F431
S11322B0FE01E3FC1591E3FE1191EF01153271F477
S11322C0C60137D297FDC9C0412F50E09C01332786
S11322D024173507C1F2B6016AD2C1C01A3239F4E3
S11322E0E3FC1591E3FE1191EF0101E001C000E070
S11322F0F12C20ED210F2A3078F402606F2D70E06C
S113230080E090E040E209DEF62EFE01E3FC159148
S1132310E3FE1191EF01EDCF01FF03C0F11003C003
S11323209EC0FF24FA94183619F01C3651F010C0E0
S1132330FE01E3FC1591E3FE1191EF01183641F41F
S113234008600460FE01E3FC1591E3FE1191EF01C6
S1132350112309F484C0612F70E08EEF92E0D7D18D
S1132360892B09F47CC000FD07C0F50180809180B1
S1132370C50102965C0102C0812C912C1E3649F4E1
S1132380F6014681578160E070E0202FC401B9DD79
S11323907ACF1336A1F401FD02C0FF24F394C601E1
S11323A0C8D197FD5AC08114910429F0F4018083A7
S11323B0C40101964C01FA94F110F1CF4AC01B35C7
S11323C051F49E01A4016F2DC6016EDEEC01892B30
S11323D009F03FC039C0C601C7DD97FD3EC01F36B6
S11323E049F128F4143621F1193639F125C013378F
S11323F071F01537E9F020C08114910429F0F4013B
S11324006082C40101964C01FA94FF2059F0C60180
S113241090D13C0197FD06C072D1892B69F3B601B6
S1132420C301C5D181149104A1F0F401108211C03B
S1132430006203C0006101C00064202FA4016F2D5D
S1132440C601A8DD811105C0F6018381807329F4DA
S113245006C000FD18CF539416CF552019F0852DD2
S113246090E002C08FEF9FEFDF91CF911F910F910A
S1132470FF90EF90DF90CF90BF90AF909F908F90A0
S11324807F906F905F9008950F931F93CF93DF9386
S1132490869F8001879F100D969F100D1124C801FF
S11324A00DD0EC01009721F0A80160E070E03AD172
S11324B0CE01DF91CF911F910F9108950F931F9338
S11324C0CF93DF938230910510F482E090E0E091A5
S11324D02E20F0912F2020E030E0A0E0B0E03097F3
S11324E019F1408151810281138148175907C8F0BD
S11324F08417950769F4109731F012960C9312978C
S113250013961C9327C000932E2010932F2022C0D3
S11325102115310519F04217530718F49A01BD012A
S1132520EF01DF01F801DBCF21153105F9F0281B9C
S1132530390B2430310580F48A819B816115710542
S113254021F0FB018283938304C080932E20909317
S11325502F20FE01329644C0FE01E20FF31F819347
S1132560919322503109288339833AC020912C2039
S113257030912D20232B41F420910220309103200F
S113258020932C2030932D20209100203091012085
S11325902115310541F42DB73EB7409104205091E7
S11325A00520241B350BE0912C20F0912D20E217FF
S11325B0F307A0F42E1B3F0B2817390778F0AC0162
S11325C04E5F5F4F2417350748F04E0F5F1F40934F
S11325D02C2050932D208193919302C0E0E0F0E0F1
S11325E0CF01DF91CF911F910F910895CF93DF9386
S11325F0009709F481C0FC01329712821382A091E2
S11326002E20B0912F20109781F420813181820FE8
S1132610931F20912C2030912D202817390751F534
S1132620E0932C20F0932D2067C0ED0120E030E0F2
S1132630CE17DF0740F44A815B819E0141155105A5
S1132640F1F0EA01F5CFC283D38340815181840F35
S1132650951FC817D90759F488819981840F951F4C
S11326600296808391838A819B818283938321153F
S1132670310529F4E0932E20F0932F203DC0E90189
S1132680EA83FB8349915991C40FD51FEC17FD07C9
S113269061F480819181840F951F0296E9018883FA
S11326A09983828193818A839B83E0E0F0E0129690
S11326B08D919C911397009719F0FD01DC01F7CFE0
S11326C08D919C9111979D012E5F3F4F820F931F17
S11326D020912C2030912D202817390769F4309748
S11326E029F410922E2010922F2002C012821382FD
S11326F0A0932C20B0932D20DF91CF9108959111B8
S11327006FC0803219F089508550D0F70895FC01CC
S11327100590061621F00020D9F7C00108953197DD
S1132720CF010895DC0101C06D9341505040E0F7A2
S11327300895CF93DF93EC012B8120FF33C026FF54
S11327400AC02F7B2B838E819F8101968E839F836A
S11327508A8190E029C022FF0FC0E881F98180813D
S1132760082E000C990B009719F420622B831AC0D1
S11327703196E883F9830EC0EA85FB85199597FFA6
S113278009C02B81019611F080E201C080E1822B07
S11327908B8308C02E813F812F5F3F4F2E833F8361
S11327A0992702C08FEF9FEFDF91CF910895FB012E
S11327B0238120FF12C026FD10C08F3F3FEF9307F7
S11327C061F082832F7D2064238326813781215009
S11327D0310926833783992708958FEF9FEF089552
S10D27E0992788270895F894FFCF85
S11327EA000030202000802500000300002563003B
S10727FA25660A0042
S9030000FC
